{
  "_format": "hh-sol-artifact-1",
  "contractName": "HealthRecord",
  "sourceName": "contracts/Lock.sol",
  "abi": [
    {
      "inputs": [],
      "stateMutability": "nonpayable",
      "type": "constructor"
    },
    {
      "inputs": [
        {
          "internalType": "address",
          "name": "patient",
          "type": "address"
        },
        {
          "internalType": "address",
          "name": "healthcareProvider",
          "type": "address"
        }
      ],
      "name": "checkAccess",
      "outputs": [
        {
          "internalType": "bool",
          "name": "",
          "type": "bool"
        }
      ],
      "stateMutability": "view",
      "type": "function"
    },
    {
      "inputs": [
        {
          "internalType": "address",
          "name": "healthcareProvider",
          "type": "address"
        }
      ],
      "name": "grantAccess",
      "outputs": [],
      "stateMutability": "nonpayable",
      "type": "function"
    },
    {
      "inputs": [],
      "name": "owner",
      "outputs": [
        {
          "internalType": "address",
          "name": "",
          "type": "address"
        }
      ],
      "stateMutability": "view",
      "type": "function"
    },
    {
      "inputs": [
        {
          "internalType": "address",
          "name": "healthcareProvider",
          "type": "address"
        }
      ],
      "name": "revokeAccess",
      "outputs": [],
      "stateMutability": "nonpayable",
      "type": "function"
    },
    {
      "inputs": [
        {
          "internalType": "address",
          "name": "patient",
          "type": "address"
        },
        {
          "internalType": "string",
          "name": "_patientName",
          "type": "string"
        },
        {
          "internalType": "string",
          "name": "_medicalHistory",
          "type": "string"
        },
        {
          "internalType": "string",
          "name": "_prescriptions",
          "type": "string"
        },
        {
          "internalType": "string",
          "name": "_vaccinations",
          "type": "string"
        }
      ],
      "name": "updateHealthRecord",
      "outputs": [],
      "stateMutability": "nonpayable",
      "type": "function"
    },
    {
      "inputs": [
        {
          "internalType": "address",
          "name": "patient",
          "type": "address"
        }
      ],
      "name": "viewHealthRecord",
      "outputs": [
        {
          "internalType": "string",
          "name": "patientName",
          "type": "string"
        },
        {
          "internalType": "string",
          "name": "medicalHistory",
          "type": "string"
        },
        {
          "internalType": "string",
          "name": "prescriptions",
          "type": "string"
        },
        {
          "internalType": "string",
          "name": "vaccinations",
          "type": "string"
        },
        {
          "internalType": "uint256",
          "name": "lastUpdated",
          "type": "uint256"
        }
      ],
      "stateMutability": "view",
      "type": "function"
    }
  ],
  "bytecode": "0x6080604052348015600f57600080fd5b50336000806101000a81548173ffffffffffffffffffffffffffffffffffffffff021916908373ffffffffffffffffffffffffffffffffffffffff1602179055506111868061005f6000396000f3fe608060405234801561001057600080fd5b50600436106100625760003560e01c80630ae5e739146100675780632cba45d61461008357806362e1f745146100b75780636558a762146100e757806385e68531146101035780638da5cb5b1461011f575b600080fd5b610081600480360381019061007c9190610923565b61013d565b005b61009d60048036038101906100989190610923565b6101d5565b6040516100ae9594939291906109f9565b60405180910390f35b6100d160048036038101906100cc9190610a68565b610601565b6040516100de9190610ac3565b60405180910390f35b61010160048036038101906100fc9190610c13565b610695565b005b61011d60048036038101906101189190610923565b6107f5565b005b61012761088d565b6040516101349190610d0d565b60405180910390f35b6001600260003373ffffffffffffffffffffffffffffffffffffffff1673ffffffffffffffffffffffffffffffffffffffff16815260200190815260200160002060008373ffffffffffffffffffffffffffffffffffffffff1673ffffffffffffffffffffffffffffffffffffffff16815260200190815260200160002060006101000a81548160ff02191690831515021790555050565b60608060608060008560008054906101000a900473ffffffffffffffffffffffffffffffffffffffff1673ffffffffffffffffffffffffffffffffffffffff163373ffffffffffffffffffffffffffffffffffffffff16148061026357508073ffffffffffffffffffffffffffffffffffffffff163373ffffffffffffffffffffffffffffffffffffffff16145b806102f45750600260008273ffffffffffffffffffffffffffffffffffffffff1673ffffffffffffffffffffffffffffffffffffffff16815260200190815260200160002060003373ffffffffffffffffffffffffffffffffffffffff1673ffffffffffffffffffffffffffffffffffffffff16815260200190815260200160002060009054906101000a900460ff165b610333576040517f08c379a000000000000000000000000000000000000000000000000000000000815260040161032a90610dc0565b60405180910390fd5b6000600160008973ffffffffffffffffffffffffffffffffffffffff1673ffffffffffffffffffffffffffffffffffffffff1681526020019081526020016000206040518060a001604052908160008201805461038f90610e0f565b80601f01602080910402602001604051908101604052809291908181526020018280546103bb90610e0f565b80156104085780601f106103dd57610100808354040283529160200191610408565b820191906000526020600020905b8154815290600101906020018083116103eb57829003601f168201915b5050505050815260200160018201805461042190610e0f565b80601f016020809104026020016040519081016040528092919081815260200182805461044d90610e0f565b801561049a5780601f1061046f5761010080835404028352916020019161049a565b820191906000526020600020905b81548152906001019060200180831161047d57829003601f168201915b505050505081526020016002820180546104b390610e0f565b80601f01602080910402602001604051908101604052809291908181526020018280546104df90610e0f565b801561052c5780601f106105015761010080835404028352916020019161052c565b820191906000526020600020905b81548152906001019060200180831161050f57829003601f168201915b5050505050815260200160038201805461054590610e0f565b80601f016020809104026020016040519081016040528092919081815260200182805461057190610e0f565b80156105be5780601f10610593576101008083540402835291602001916105be565b820191906000526020600020905b8154815290600101906020018083116105a157829003601f168201915b5050505050815260200160048201548152505090508060000151816020015182604001518360600151846080015196509650965096509650505091939590929450565b6000600260008473ffffffffffffffffffffffffffffffffffffffff1673ffffffffffffffffffffffffffffffffffffffff16815260200190815260200160002060008373ffffffffffffffffffffffffffffffffffffffff1673ffffffffffffffffffffffffffffffffffffffff16815260200190815260200160002060009054906101000a900460ff16905092915050565b60008054906101000a900473ffffffffffffffffffffffffffffffffffffffff1673ffffffffffffffffffffffffffffffffffffffff163373ffffffffffffffffffffffffffffffffffffffff1614610723576040517f08c379a000000000000000000000000000000000000000000000000000000000815260040161071a90610eb2565b60405180910390fd5b6040518060a0016040528085815260200184815260200183815260200182815260200142815250600160008773ffffffffffffffffffffffffffffffffffffffff1673ffffffffffffffffffffffffffffffffffffffff168152602001908152602001600020600082015181600001908161079e919061107e565b5060208201518160010190816107b4919061107e565b5060408201518160020190816107ca919061107e565b5060608201518160030190816107e0919061107e565b50608082015181600401559050505050505050565b6000600260003373ffffffffffffffffffffffffffffffffffffffff1673ffffffffffffffffffffffffffffffffffffffff16815260200190815260200160002060008373ffffffffffffffffffffffffffffffffffffffff1673ffffffffffffffffffffffffffffffffffffffff16815260200190815260200160002060006101000a81548160ff02191690831515021790555050565b60008054906101000a900473ffffffffffffffffffffffffffffffffffffffff1681565b6000604051905090565b600080fd5b600080fd5b600073ffffffffffffffffffffffffffffffffffffffff82169050919050565b60006108f0826108c5565b9050919050565b610900816108e5565b811461090b57600080fd5b50565b60008135905061091d816108f7565b92915050565b600060208284031215610939576109386108bb565b5b60006109478482850161090e565b91505092915050565b600081519050919050565b600082825260208201905092915050565b60005b8381101561098a57808201518184015260208101905061096f565b60008484015250505050565b6000601f19601f8301169050919050565b60006109b282610950565b6109bc818561095b565b93506109cc81856020860161096c565b6109d581610996565b840191505092915050565b6000819050919050565b6109f3816109e0565b82525050565b600060a0820190508181036000830152610a1381886109a7565b90508181036020830152610a2781876109a7565b90508181036040830152610a3b81866109a7565b90508181036060830152610a4f81856109a7565b9050610a5e60808301846109ea565b9695505050505050565b60008060408385031215610a7f57610a7e6108bb565b5b6000610a8d8582860161090e565b9250506020610a9e8582860161090e565b9150509250929050565b60008115159050919050565b610abd81610aa8565b82525050565b6000602082019050610ad86000830184610ab4565b92915050565b600080fd5b600080fd5b7f4e487b7100000000000000000000000000000000000000000000000000000000600052604160045260246000fd5b610b2082610996565b810181811067ffffffffffffffff82111715610b3f57610b3e610ae8565b5b80604052505050565b6000610b526108b1565b9050610b5e8282610b17565b919050565b600067ffffffffffffffff821115610b7e57610b7d610ae8565b5b610b8782610996565b9050602081019050919050565b82818337600083830152505050565b6000610bb6610bb184610b63565b610b48565b905082815260208101848484011115610bd257610bd1610ae3565b5b610bdd848285610b94565b509392505050565b600082601f830112610bfa57610bf9610ade565b5b8135610c0a848260208601610ba3565b91505092915050565b600080600080600060a08688031215610c2f57610c2e6108bb565b5b6000610c3d8882890161090e565b955050602086013567ffffffffffffffff811115610c5e57610c5d6108c0565b5b610c6a88828901610be5565b945050604086013567ffffffffffffffff811115610c8b57610c8a6108c0565b5b610c9788828901610be5565b935050606086013567ffffffffffffffff811115610cb857610cb76108c0565b5b610cc488828901610be5565b925050608086013567ffffffffffffffff811115610ce557610ce46108c0565b5b610cf188828901610be5565b9150509295509295909350565b610d07816108e5565b82525050565b6000602082019050610d226000830184610cfe565b92915050565b7f4163636573732044656e6965643a20596f7520617265206e6f7420617574686f60008201527f72697a656420746f2076696577206f72206d6f6469667920746869732072656360208201527f6f72640000000000000000000000000000000000000000000000000000000000604082015250565b6000610daa60438361095b565b9150610db582610d28565b606082019050919050565b60006020820190508181036000830152610dd981610d9d565b9050919050565b7f4e487b7100000000000000000000000000000000000000000000000000000000600052602260045260246000fd5b60006002820490506001821680610e2757607f821691505b602082108103610e3a57610e39610de0565b5b50919050565b7f4163636573732044656e6965643a204f6e6c79206f776e65722063616e20706560008201527f72666f726d207468697320616374696f6e000000000000000000000000000000602082015250565b6000610e9c60318361095b565b9150610ea782610e40565b604082019050919050565b60006020820190508181036000830152610ecb81610e8f565b9050919050565b60008190508160005260206000209050919050565b60006020601f8301049050919050565b600082821b905092915050565b600060088302610f347fffffffffffffffffffffffffffffffffffffffffffffffffffffffffffffffff82610ef7565b610f3e8683610ef7565b95508019841693508086168417925050509392505050565b6000819050919050565b6000610f7b610f76610f71846109e0565b610f56565b6109e0565b9050919050565b6000819050919050565b610f9583610f60565b610fa9610fa182610f82565b848454610f04565b825550505050565b600090565b610fbe610fb1565b610fc9818484610f8c565b505050565b5b81811015610fed57610fe2600082610fb6565b600181019050610fcf565b5050565b601f8211156110325761100381610ed2565b61100c84610ee7565b8101602085101561101b578190505b61102f61102785610ee7565b830182610fce565b50505b505050565b600082821c905092915050565b600061105560001984600802611037565b1980831691505092915050565b600061106e8383611044565b9150826002028217905092915050565b61108782610950565b67ffffffffffffffff8111156110a05761109f610ae8565b5b6110aa8254610e0f565b6110b5828285610ff1565b600060209050601f8311600181146110e857600084156110d6578287015190505b6110e08582611062565b865550611148565b601f1984166110f686610ed2565b60005b8281101561111e578489015182556001820191506020850194506020810190506110f9565b8683101561113b5784890151611137601f891682611044565b8355505b6001600288020188555050505b50505050505056fea2646970667358221220b2440a9a1c03719ec48c0c4d2828776306147f45bcdfc44910ec7b66bd17b34864736f6c634300081c0033",
  "linkReferences": {},
  "deployedLinkReferences": {}
}